S0180000536D6172745F686F6D6520736C6176652E73726563C2
S11300000C945E000C9470000C9470000C947000BE
S11300100C9470000C9470000C9470000C9470009C
S11300200C9470000C9470000C9470000C9470008C
S11300300C9470000C9470000C9470000C9470007C
S11300400C9470000C9470000C9470000C9470006C
S11300500C9470008100830085008D009000900056
S1130060900090009000900090009000900090000C
S113007090009000900090009000900090009000FC
S113008090009000900090009000900090009000EC
S113009090009000900090009000900090009000DC
S11300A090009000900090009000900090009000CC
S11300B090009000870089008B008F0011241FBEE0
S11300C0CFE5D8E0DEBFCDBF20E0A0E6B0E001C0C0
S11300D01D92A136B207E1F70E9491000C94A8008A
S11300E00C94000085E50E949D008093600090E0E0
S11300F0FC01F197E433F10598F4E65DFF4F0C94AD
S1130100A200A89A0895AC9A0895AF9A0895A89861
S11301100895AC980895AF980895929A0895929886
S113012008950E94990081E984BB8A9A0E94720012
S1130130FDCF80E487BB8DB908958FB9779BFECF3F
S11301408FB10895EE0FFF1F0590F491E02D0994EF
S1070150F894FFCF4D
S9030000FC
