S0190000536D6172745F686F6D65206D61737465722E7372656350
S11300000C945E000C947B000C947B000C947B009D
S11300100C947B000C947B000C947B000C947B0070
S11300200C947B000C947B000C947B000C947B0060
S11300300C947B000C947B000C947B000C947B0050
S11300400C947B000C947B000C947B000C947B0040
S11300500C947B008C009600A000C800DB00DB0041
S1130060DB00DB00DB00DB00DB00DB00DB00DB00B4
S1130070DB00DB00DB00DB00DB00DB00DB00DB00A4
S1130080DB00DB00DB00DB00DB00DB00DB00DB0094
S1130090DB00DB00DB00DB00DB00DB00DB00DB0084
S11300A0DB00DB00DB00DB00DB00DB00DB00DB0074
S11300B0DB00DB00AA00B400BE00D20011241FBE86
S11300C0CFE5D8E0DEBFCDBF10E0A0E6B0E0EEE2C1
S11300D0F2E002C005900D92AA3CB107D9F720E0E6
S11300E0AAECB0E001C01D92AC3CB207E1F70E945B
S11300F0DC000C9415010C9400000E94F80080931D
S1130100CB0090E0FC01F197E433F10508F053C013
S1130110E65DFF4F0C940F0181E30E94E900809398
S1130120CA0080E690E00E940001089582E30E94E4
S1130130E9008093CA008DE690E00E9400010895D2
S113014083E30E94E9008093CA008AE790E00E945A
S11301500001089581E60E94E9008093CA0087E8BF
S113016090E00E940001089582E60E94E9008093D5
S1130170CA0085E990E00E940001089583E60E9488
S1130180E9008093CA0083EA90E00E940001089588
S113019084E30E94E9008093CA0081EB90E00E940E
S11301A00001089584E60E94E9008093CA008DEB63
S11301B090E00E94000108950E94E3000E94F00074
S11301C00E947D00FDCFA09A80EA87BB81E58DB9AE
S11301D00895A8988FB9779BFECFA89A8FB10895F8
S11301E0899A87E689B988E18AB986E880BD089545
S11301F05F9BFECF8CB108955D9BFECF8CB90895B3
S1130200CF93DF93EC018881882331F021960E94FB
S1130210FC0089918111FBCFDF91CF910895EE0FFE
S1110220FF1F0590F491E02D0994F894FFCF90
S113022E0D0A4C65642031206F6E0D0A000D0A4CC8
S113023E65642032206F6E0D0A000D0A4C65642031
S113024E33206F6E0D0A000D0A4C65642031206F49
S113025E66660D0A000D0A4C65642032206F6666D0
S113026E0D0A000D0A4C65642033206F66660D0A74
S113027E000D0A4C616D70206F6E0D0A000D0A4C54
S10D028E616D70206F66660D0A00B2
S9030000FC
